:10000000E0140120296600006F1B0300FD6500005D
:10001000FD650000FD650000FD650000FD65000058
:100020000000000000000000000000001963000054
:10003000FD6500000000000081620000FD65000019
:10004000BD630000BD630000BD630000BD63000030
:10005000BD630000BD630000BD630000BD63000020
:10006000BD630000BD630000BD630000BD63000010
:10007000BD630000BD630000BD630000BD63000000
:10008000BD630000BD630000BD630000BD630000F0
:10009000BD630000BD630000BD630000BD630000E0
:1000A000BD630000BD630000BD630000BD630000D0
:1000B000BD630000BD630000BD630000BD630000C0
:1000C000BD630000BD630000BD630000BD630000B0
:1000D000BD630000BD630000BD630000BD630000A0
:1000E000BD630000BD630000BD630000BD63000090
:1000F000BD630000BD630000BD630000BD63000080
:10010000BD630000BD630000BD630000BD6300006F
:10011000BD630000BD630000BD630000BD6300005F
:10012000BD630000BD630000BD630000BD6300004F
:10013000BD630000BD630000BD630000BD6300003F
:10014000BD630000BD630000BD630000BD6300002F
:04015000BD6300008B
:04015400FFFFFFFFAB
:1001580053B94AB9002908BF00281CBF4FF0FF3126
:100168004FF0FF3000F00CB8ADF1080C6DE904CE8B
:1001780000F008F8DDF804E0DDE9022304B0704778
:10018800704700BF2DE9F04786468C460846089E12
:10019800154674461946002B40F0C1808542B2FAD4
:1001A80082F245D94AB1C2F1200300FA02FC954017
:1001B80094402EFA03F343EA0C0C4FEA154EA8B20A
:1001C800230CBCFBFEF80EFB18CC08FB00F943EA35
:1001D8000C43994528D9EB1808F1FF3704D2994503
:1001E80002D9A8F102072B44A3EB0903A4B2B3FB7D
:1001F800FEFC0EFB1C330CFB00F044EA0344A04257
:1002080014D92C190CF1FF3304D2A04202D9ACF155
:1002180002032C44241A43EA07401EB1D4400023A9
:1002280034607360BDE8F0874746DDE76346F1E771
:1002380092BB431B01214FEA154EAFB2200CB3FB12
:10024800FEFC0EFB1C330CFB07F840EA0343984501
:1002580061D9EB180CF1FF3004D2984502D9ACF102
:1002680002002B44A3EB0803A4B2B3FBFEFC0EFB75
:100278001C330CFB07F744EA0344A7424DD92C1959
:100288000CF1FF3304D2A74202D9ACF102032C448B
:10029800E41B43EA0040C0E7C2F1200395409440C4
:1002A80020FA03F12EFA03F34FEA154E9040AFB24D
:1002B8000343B1FBFEFC0EFB1C10190C0CFB07F8EA
:1002C80041EA0041884522D969180CF1FF3004D26F
:1002D800884502D9ACF102002944A1EB08019BB280
:1002E800B1FBFEFC0EFB1C110CFB07F743EA0143B4
:1002F8009F420ED9EB180CF1FF3104D29F4202D96C
:10030800ACF102012B44DB1B41EA004193E7604654
:10031800E3E76146F7E76046A4E76346B8E7834248
:1003280006D916B9002108467CE7C6E900E0F9E7D6
:10033800B3FA83F78FB9834201D3724508D8BEEB6D
:10034800020460EB030301209C461EB9002169E703
:100358003846FAE7C6E9004CF8E7C7F1200CBB407D
:100368000EFA07F522FA0CF42EFA0CF1BA401C43E7
:1003780020FA0CF3B8404FEA144901431FFA84FEEF
:10038800B3FBF9F809FB18300B0C08FB0EFA43EA2B
:1003980000439A4540D9E31808F1FF3004D29A4542
:1003A80002D9A8F102002344A3EB0A0389B2B3FBE4
:1003B800F9F809FB183308FB0EFE41EA03418E45A4
:1003C8002CD9611808F1FF3304D28E4502D9A8F15F
:1003D8000203214443EA0040A1EB0E01A0FB02986E
:1003E8004145CE46434602D306D14D4504D2013895
:1003F800B9EB020E68EB0403002EA7D0B5EB0E0292
:1004080061EB030101FA0CFC22FA07F3F9404CEA0C
:100418000303C6E9003199E74046C5E74346D9E7F3
:1004280070B4840746D04C1E002941D0D5B203468B
:1004380002E0611EE4B30C4603F8015B9907F8D1AA
:10044800032C2ED9D5B245EA05250F2C45EA0545DA
:1004580019D9264603F11001103E0F2E41F8105C01
:1004680041F80C5C41F8085C41F8045C01F11001AA
:10047800F2D8A4F1100121F00F0104F00F0410319B
:10048800032C0B440DD91E4621460439032946F88E
:10049800045BFAD8211F21F0030104310B4404F056
:1004A80003042CB1D2B21C4403F8012BA342FBD1A4
:1004B80070BC70470C460346C2E710F8012B11F8D0
:1004C800013B012A28BF9A42F7D0D01A7047034649
:1004D80013F8012B002AFBD1181A013870470000C5
:1004E8002DE9F04F2DED028B00249FED418BADF6E9
:1004F800843D414F04940DF580654FF00009A846EE
:10050800DFF80CB106AE8DED008B5A4631463B48FC
:10051800B24638F0A2F828B1404080F311884FF075
:10052800030002DF2846DBF80020DAF800103BF071
:10053800D6FD09F101095146304838F09EF8B9F165
:100548000A0F06F1040605F1C005DCD13B79002B42
:100558002FD02B4B1B68F3B12A4A4FF470710092CD
:1005680010A8294A37F0D8FE28B1404080F31188F6
:100578004FF0030002DF05AB0093102243464FF40F
:10058800707110A837F0A3FF28B1404080F311889C
:100598004FF0030002DF4FF4F06140461B4A04AB02
:1005A80001F0DCFF28B1404080F311884FF00300D0
:1005B80002DFB4F57A7F16D1104803AA02A938F0F1
:1005C8005FF828B1404080F311884FF0030002DF44
:1005D80000243B79002B8ED00C4B3A7B0499186889
:1005E80001F0C8FB87E70134F3E700BFAFF30080F1
:1005F800FFFFFFFFFFFFFFFF68290020C002002068
:10060800642900205C290020D4A500205829002056
:1006180060290020000000002DE9F04F82461646B0
:100628001C4600259FB00391307810B9284600F089
:1006380085BD731C2528069306D00399D04700284A
:10064800C0F27C8501351BE21822002110A83BF07E
:1006580066FD7378252B00F0BA80002398469E46E5
:100668009C461846711C0F4611F8012B2B2A00F0E6
:10067800DD8000F2D480202A00F0DB80232A00F0FD
:10068800DB802BB19DF8483043F040038DF84830AB
:10069800B8F1000F05D09DF8483043F020038DF8DD
:1006A8004830BEF1000F05D09DF8483043F01003E4
:1006B8008DF84830BCF1000F05D09DF8483043F064
:1006C80008038DF8483028B19DF8483043F00403FA
:1006D8008DF848309DF8483003F04401442903D18F
:1006E8006FF386138DF848309DF848302A2A43F076
:1006F80080030E978DF8483040F0A3809DF849306C
:1007080043F001038DF849307B1C1A782E2A0CBF60
:10071800012100219DF8492061F341028DF849200B
:100728000CD15A1C0E925A782A2A40F09A809DF8C9
:100738004920023342F004028DF849201A786C2AC5
:1007480000F0BB8000F29D80682A00F0A3806A2A2E
:1007580000F0BC804C2A00F0C18013F8012B782AE5
:1007680006938DF84B2000F201816D2A00F2C380B8
:10077800692A00F2FB80572A00F2DA80412A04D065
:10078800A2F14503022B00F2F18004219DF84A30C2
:1007980002F0DF02A2F1410761F302037A429DF8F9
:1007A80049107A4162F3C7110A068DF84A308DF86C
:1007B8004910CBB200F1198103F07802182A40F0F1
:1007C80003816FF3C6038DF849300023F2E0B21CB1
:1007D80006928DF84B309DF84930D90740F10781D2
:1007E80054F8042B002A049208DA9DF8482042F0B5
:1007F80004028DF84820049A524204925A0740F1A4
:10080800FE8054F8047B002F80F2FD809DF849306B
:100818006FF341038DF849304FF0FF37F3E02D2A8D
:100828000DD0302A7FF42DAF01231CE74FF0010CC7
:1008380019E74FF0010E16E74FF0010813E7012002
:1008480011E70EA803F09EFA0E9BBB423FF45DAF82
:100858009DF848201390C00F60F341028DF848209E
:1008680053E70EA803F08EFA9DF848301490C3F3AE
:10087800400242EAD07262F341038DF848300E9B81
:100888005CE7742A26D07A2A7FF467AF06219DF8A0
:1008980049200CE05A78682A9DF8492006D10121A0
:1008A80061F3C6028DF84920023356E7022161F34D
:1008B800C6028DF8492001334FE75A786C2A9DF813
:1008C800492001D10421EBE70321F0E705219DF838
:1008D8004920ECE707219DF84920E8E7BDF84820C2
:1008E80022F4F04222F0020242F4804242F0020274
:1008F800ADF84820DFE76E3AD3B201229A4040F2C1
:1009080082431A429DF8493037D112F0240F5FD143
:10091800D1072BD503219DF84A2003F07803A3F1D2
:10092800400061F3020243428DF84A20434141E00E
:100938000120A2F15801C9B200FA01F111F4624F85
:100948007FF423AF40F6010319429DF849301AD1CC
:1009580011F4043F0AD09DF84A2060F3020203F024
:100968007803402B8DF84A207FF42FAF9DF848304C
:1009780043F001038DF8483027E702219DF84A200B
:1009880061F30202EBE702209DF84A1003F07803B6
:1009980060F30201402B8DF84A1002BF9DF8481001
:1009A80041F001018DF84810632A7FF40EAF003B37
:1009B80018BF01239DF84820C2F340010B4363F39D
:1009C80041028DF8482006E713F0380FCED1FCE637
:1009D80003219DF84A2013F0780F61F3020214BF37
:1009E800012300238DF84A20E4E70123E2E79DF97B
:1009F8004820002AACBF4FF0FF32139AFDE69F074C
:100A08007FF50AAF149F0023CDE913339DF84A30D0
:100A180003F00702042A9DF8492007D1900705D45E
:100A28009DF949100029ACBF06270D2703F00703DD
:100A3800012BC2F3C30233D1D31E042B04D8DFE841
:100A480003F02146462121002368012A4FEAE37179
:100A5800CDE910311CD19DF94030D917CDE91031BD
:100A680004349DF848309907079350D032465046D1
:100A7800069B03992FF014FD0028C0F25F830544FC
:100A8800069ED1E554F8043BD917CDE91031E8E7C3
:100A9800022AE5D119B243F3C033CDE91013DFE7D9
:100AA800022B24D1D31E042B04D8DFE803F018103E
:100AB80010181800012A4FF0000154F8043B14D014
:100AC800022ACDE91031CCD19BB21093C9E7073483
:100AD80024F00704F4E80201CDE91001C1E754F855
:100AE800043B109300231193BBE7DBB2CDE7042B43
:100AF80008D1073424F00704D4E900010834CDE90B
:100B08001001AEE7032BACD154F8043BDDE79DF8A8
:100B18004BB0BBF1780FB3D8BBF1570F49D8BBF135
:100B2800250F00F09180BBF1240FA9D9BBF1410F2B
:100B380003D0ABF14502022AA2D8DDE91012002A3F
:100B4800C0F23681079B1E0700F13581C3F30019F7
:100B58004FEA4919C2F30A50C2F31302002840F0C1
:100B68002D8151EA020614BF01260026D20242EA6C
:100B78005152C902BBF1460F40EA010E42EAE07C3D
:100B880008BF4FF0660B5EEA0C0CCDE90C1200F0C2
:100B98009B81002E40F049810D9AA0F2FE3842F068
:100BA80000420D920020DDE90C1206464FF0050CBC
:100BB80055E1ABF1580120293FF662AF01A050F88A
:100BC80021F000BF570D0000890A0000890A0000C3
:100BD800890A0000890A0000890A0000890A0000C1
:100BE800890A0000890A0000430B0000890A0000F6
:100BF800DB0C0000EF0C0000430B0000430B00006F
:100C0800430B0000890A0000EF0C0000890A00006D
:100C1800890A0000890A0000890A0000910D000075
:100C2800570D00005D0D0000890A0000890A0000C8
:100C3800570C0000890A0000570D0000890A0000BF
:100C4800890A0000570D000058460399F6E4002F62
:100C5800109E3ADB394630463BF03EFB3718002EF3
:100C68003FF40EAF4FF000099DF84A3013F0100220
:100C7800059200F05882023013F04003DDF84C80F2
:100C8800089318BF149B404418BFC018049BCDF8A4
:100C98001C80002B40F362829DF848201B1A5007E5
:100CA8000493C2F3800B00F15982510640F1498246
:100CB800B9F1000F07D048460399D0470028C0F281
:100CC8003D82D946013530223CE23046FFF7FFFB32
:100CD800C4E7109B4FF0000901208DF85C300DF13E
:100CE8005D0717AEC0E7079B1A0754BFC3F3001987
:100CF8004FF02B09DDE9102358BF4FEA4919002BA3
:100D080006DA4FF02D09524263EB4303CDE9102375
:100D1800DDE910010DF17503009312AA17AB03F07A
:100D280047F80646002F0CDB9DF848200DF17503A7
:100D38009B1B6FF386129F428DF8482001D9FB1A3E
:100D48001393002E3FF49CAE0DF175075BE04FF056
:100D58000009DDE71098002800F0E0810DF1750327
:100D68000093002117AB12AA03F022F8BDF84A300D
:100D7800064603F0EF0343F4F04343F010034FF04B
:100D88000009ADF84A30CDE7109B072A3FF678AE48
:100D9800DFE802F00C04060C08080C0C1D706FE666
:100DA8001D806DE6EA17C3E9005269E61D6067E633
:100DB8004FF02D09CEE64FF02B09CBE640F2FF7637
:100DC800B0422FD1A0480BF10103DBB2C35C0A4348
:100DD80003F003031ED1012B0BBF492369234E21C6
:100DE8006E210CBF462266228DF85C309DF8483093
:100DF8008DF85D106FF386138DF85E208DF84830FE
:100E08000DF15F0717AEB81BB9F1000F3FF42CAF17
:100E1800013029E7012B15BF6E234E2361214121A3
:100E28001A46E1E70026A1E6013849185241002A8E
:100E3800FADACDE90C12AFE6490841EAC271520864
:100E4800B2F1333F404608F10108F5D200F102083B
:100E580001200CFB02FEA1FB0C12013E724418F1AA
:100E6800020FE9DB08B1CDE90C12DDE90C21B8F17C
:100E7800000F2CDCC8F10400A0F1200C08F11C08BC
:100E8800C24001FA08F821FA0CFCC1400BF0DF005F
:100E980042EA0802472842EA0C0238D1F01C01DB7A
:100EA800B7422ADAABF10203002F5FFA83FB7BDD3E
:100EB8009DF84800013F830676D43B1E18BF0123E6
:100EC800059307F101082CE04FF000086AE60232AA
:100ED80041F100010CA808F1FF380136CDE90C21D9
:100EE8002FF0AFFADDE90C2192184941002908F1E9
:100EF800FF38F9DACDE90C21B7E79DF84830BF1B78
:100F080098064FD43B1E18BF0123059304E0002325
:100F1800BBF1660F0593D4D117EB06084FF0660BAB
:100F280044D4B8F1100FA8BF4FF010089FED447BD0
:100F380010208DED0E7B0B90DDE90E03B8F1000F4C
:100F480037D1121841EB0301B1F1805F41D2CDE9ED
:100F58000C21079BBBF1660F03F0200240F0BD8017
:100F6800002E41DC30218DF85C10002A6ED1002F54
:100F780040F3B5812E228DF85D2086B17242BA42C7
:100F8800A8BF3A46002A1392A7EB0207D4BF002253
:100F980001229DF84A1062F345118DF84A100DF1AF
:100FA8005E0839E00023B0E7002389E74FF0000826
:100FB800BCE7400840EAC3705B08CDE90E030EA801
:100FC800CDE9082108F1FF382FF03BFADDE90821C7
:100FD800B2E7520842EAC1720CA84908CDE90C21CF
:100FE80001362FF02EFAB4E70DF15C080B990029B1
:100FF80009DD0BA90CA807922FF03BFA013E079ACE
:1010080008F8010BF2D113969AB9002F40F36581C5
:101018002E2108F8011B0026002F20DD0B9A002A3C
:101028001DDD0BA90CA82FF024FA013F08F8010BCD
:10103800F2E72E2208F8012BEDE700BFAFF300809E
:101048000000000000000008646F04002E228DF8E4
:101058005D20002EA3D0002F90DC0DF15E08059BCB
:10106800002B4ED1149747460BF0DF02452A23D1B7
:10107800002EBABF76422D232B23632EC8BF6421CE
:101088007B70C4BFB6FBF1F301FB13664FF00A0196
:10109800C8BF03F13000B6FBF1F3D2BFBA1CFA1C8B
:1010A800B87087F800B0174603F1300001FB1363EE
:1010B800303307F8020B5370139B002B2CDC149B66
:1010C800002BD4BF002301239DF84A2063F3861226
:1010D80000238DF84A203B7094E60BA90CA80792D0
:1010E8002FF0C7F9079A30288DF85C0018BF06F171
:1010F800FF3612B9002F40F3F2802E228DF85D20C2
:101108004DE7474617F8012C08F1FF38302AF8D088
:101118002E2A08BF4746A7E70123D5E7714F814626
:101128007E1F0520A0E51A0748BF0130A4E5104638
:1011380009920399D0470028099A05DA1FB0BDE83B
:10114800F08F2022DDF810B0594600290BF1FF3B43
:10115800EDDC049BCDF810B02B445D1AB9F1000FFB
:1011680005D048460399D0470028E7DB0135089B9E
:10117800002B77D09DF94930002B28DB3346DFF868
:10118800689118789B4619F80020013352073FD41C
:101198009DF84A30AE1B98065E4407D44246002AA2
:1011A80008F1FF383BDC079B33449E1A9BF800008C
:1011B8002E280AD10399D0470028BFDBB8F1000FC9
:1011C80006F1010631DC0BF1010B5D4638E0B14652
:1011D80099F80000C846702809F1010913D1AE1B1F
:1011E800149D46443544AB1B002B33DC3B4642463A
:1011F800504603992FF054F900289FDB3044049E91
:101208000546064464E00399D0470028E0DA95E7EC
:1012180005930399D0470028059BB2DA8EE7302062
:101228000399D0470028B9DA88E730200399D047D6
:1012380008F1FF38C0E70399D0470028FFF67EAFD2
:101248002878A84619F8003001355907F3D4A6EBD9
:101258000B06C5E730200399D0470028FFF66EAF8C
:101268000136C0E79DF84A30DA0601D41B0706D5D7
:1012780030200399D0470028FFF660AF0135059B61
:101288003BB103999DF84B00D0470028FFF656AFB5
:101298000135A84406E030200399D0470028FFF61E
:1012A8004DAF0135A8EB0503002BF4DC3B46324675
:1012B800504603992FF0F4F80028FFF63FAF284472
:1012C8009DE720200399D0470028FFF637AF013566
:1012D800731B002BF5DCFFF7D3BB1646BFE60DF1F9
:1012E8005D08BCE6FF590400656F040000000000BB
:1012F800F7B5584DD5F82C31996811F001011AD17C
:1013080040F6034001AA06F005F80446002840F01C
:101318009D800198C3681B785BB905F18403D3E805
:10132800AF2F02F00902D3E8EF1FC3E8E42F002C27
:10133800F9D10FF037F8002141F2030001AA05F0B6
:10134800E9FF0446002840F08180019B424EDA689C
:10135800D2F80100D2F8051003C618460FF022F89B
:10136800214641F2010001AA05F0D4FF04460028F5
:101378006CD10198C3685A7885F824205A88EA8481
:101388001A7985F82520B3F807202A85B3F805309F
:101398006B850FF007F8214641F2020001AA05F01B
:1013A800B9FF0446002851D1019FFA68531C413205
:1013B800344618685968083303C493422646F7D15F
:1013C80038460EF0EFFF07F099FB044600283DD1A0
:1013D80095F83E30980633D5072140F6334005F09E
:1013E8005FFF0646002800F06C8107210C3035F0BD
:1013F800D9FE0323012703700623C0F80240847135
:10140800047122464770C370314640F6334005F0F8
:1014180081FF0446D0B9394640F6314005F040FF17
:101428000646002800F04D8139460C3035F0C9FEDB
:101438002246314640F6314005F06CFF044628B993
:1014480095F83030590609D46FF01204204603B0DD
:10145800F0BD00BF000000202C0000206A460021DB
:1014680042F2030005F056FF04460028EED1009B27
:10147800C34EDA68D2F80100D2F8051003C6184640
:101488000EF090FF95F88B300F2B40F22B81022144
:1014980042F2740005F004FF0746002800F01181AD
:1014A80002210C3035F07EFE2023037001232246F2
:1014B8004370394642F2740005F02CFF04460028B8
:1014C800C4D195F85D1001AA11F0200100F0FC804C
:1014D800014642F2600005F01DFF04460028B5D120
:1014E800019FFC68B4F801309AB2A5F8B4309AB1FB
:1014F800E27806F12800114630F05EFDA3889AB222
:10150800A5F8D03042B1A27906F14400114630F076
:1015180053FDA37985F8D23038460EF043FF95F88D
:10152800306016F0200619D1022140F66D4005F012
:10153800B7FE0446002800F0C48002210C3035F0C4
:1015480031FE0123214603704670324640F66D4055
:1015580005F0E0FE044600287FF478AF95F8503097
:101568001A0713D56A46002142F21C0005F0D2FE84
:10157800044600287FF46AAF0098C368D3F80120B6
:10158800D3F80530C5E924230EF00CFF95F8883010
:101598005B062AD5022142F22E0005F081FE0446A0
:1015A800002800F08E8002210C3035F0FBFDB5F8E4
:1015B800703121460380002242F22E0005F0AAFE77
:1015C800044600287FF442AF01466A4642F22A00E8
:1015D80005F0A0FE044600287FF438AF0098C368E1
:1015E8005B7885F8EC300EF0DDFE082142F2010050
:1015F80005F056FE0446002863D008210C3035F06B
:10160800D1FD95F888105F4B11F0020F02465E4835
:1016180008BF184695F889308F0648BF40F040004B
:1016280013F0090F95F8563018BF40F4006003F026
:101638000603CE0748BF40F01000062B95F88B3004
:1016480008BF40F4C07013F0300F05D0990654BF9E
:1016580040F0807040F04070002130F0B0FC21462E
:10166800002242F2010005F055FE044600287FF4EE
:10167800EDAE95F83030B5F8B4109A063ED4C9B935
:1016880041F2050001AA05F045FE044600287FF452
:10169800DDAEB5F8B430019C4BB9E3683B48B3F80C
:1016A8000120A5F8B4209A88114630F085FC204620
:1016B8000EF078FE082140F6014005F0F1FD0446E1
:1016C80008BB6FF06804C1E642F2020005F022FE92
:1016D800044600287FF4BAAE019C204605F02CFD94
:1016E80020461AE721466A4642F2020005F012FE39
:1016F800044600287FF4AAAE009CEEE70029D9D161
:101708006FF00404A2E608210C3035F04BFD95F883
:1017180088300246DB0747BF17A1D1E900014FF027
:1017280000511B4830F04BFC2146002240F6014096
:1017380005F0F0FD044600287FF488AE06F04CFE64
:10174800044600287FF482AE08F01AF80446002800
:101758007FF47CAE07F076FB044600287FF476AE73
:10176800EB79002B3FF472AE08210A4830F06BFB8E
:1017780006F0E4F86AE600BF9088000200800020C6
:10178800880000200E1207002E120700B800002063
:1017980010880002840000202DE9F0472DED028B0F
:1017A80004469FED498B4A4E84B04FF02003EFF377
:1017B800118783F31288BFF36F8FD4F8E8508DB97F
:1017C800022104F580703AF03BF8002843D1002349
:1017D8008DED008B3946029304F1F0023D4816F076
:1017E80025F9E2E7D4F8EC202B689542C4F8E830F4
:1017F80008BFC4F8EC30D4F8003143F00203C4F851
:101808000031EB6823F0040343F00103EB606B68DD
:1018180087F31188BFF36F8F284698474FF020034E
:10182800EFF3118983F31288BFF36F8FEB68990781
:1018380023F0010219D4EA60D4F8003123F002033E
:10184800C4F8003189F31188BFF36F8FDB05ACD47E
:1018580015F0EAFFA9E704F1F8050022012128465E
:101868003AF0EAF90028F8D1B1E7306823F0030329
:10187800EB600028E0D00027BA46D0F800800028A6
:10188800DAD04268014695420BD1016897B972686F
:101898003160824200D1716040F808AB15F0BEFBA0
:1018A8003946B8F1000F0BD0D8F8002040460F4653
:1018B8009046E4E739607268824208BF7760EBE7D8
:1018C8004246F3E7AFF30080FFFFFFFFFFFFFFFF94
:1018D800E8A20020E9B2002007B501220F4BD3E8A7
:1018E800EF1FC3E8E02F0028F9D12FF016FB0DF108
:1018F8000701052001F00EFD014640B1404080F38C
:1019080011884FF0030002DF03B05DF804FB9DF877
:101918000730002BF8D005F089FEF5E754290020A0
:1019280013B50021012012F095FE5B4B984240F060
:101938008F80012038F0CAFE4FF05023D3F80C24D2
:10194800D3F80C14C903F9D5D207F7D501F02CFF49
:1019580028B1404080F311884FF0030002DF01F006
:1019680003FD28B1404080F311884FF0030002DFE7
:1019780002F09CF802200DF1070101F0CBFC0028D1
:1019880079D19DF80730002B69D002F089F82DF045
:10199800FBFE28B1404080F311884FF0030002DFBE
:1019A8002EF0A8F828B1404080F311884FF00300CA
:1019B80002DF3A4801F0E6FF28B1404080F3118881
:1019C8004FF0030002DF354BDB6813F47F6F0BD059
:1019D80001F0B0FF10F1130F06D028B1404080F39A
:1019E80011884FF0030002DF2D4800F0A3FF28B153
:1019F800404080F311884FF0030002DF294CD4E8FF
:101A0800AF3F002B3ED0042001F0ACFE044658B98D
:101A18000DF1070002F03EF89DF80700002837D1C5
:101A2800042101F07FFE28B1404080F311884FF077
:101A3800030002DF2DF0AAFE00F018FA28B140409A
:101A480080F311884FF0030002DF00F0A5F9FCE7EE
:101A5800404080F311884FF0030002DF76E703204F
:101A68000DF1070101F056FC28B99DF80730002B4D
:101A78008DD0012089E7404080F311884FF00300A2
:101A880002DF84E7002140F6CD4015F04FFFB6E7AE
:101A980005212046C5E700BF0000AD0B4029002006
:101AA800E11800005429002010B50D4C10B9206031
:101AB800002010BD82B2B7EE000A4BF680332146F3
:101AC800084810F027FD28B1404080F311884FF0F6
:101AD800030002DF2368602BEAD96FF00B00E8E708
:101AE80064290020D4A5002040F2011330B5324CFF
:101AF800324823800123A37090F85C30254689B0D2
:101B080043B936F000FE28B1404080F311884FF009
:101B1800030002DF2A4890F85C3043B936F0F3FD41
:101B280028B1404080F311884FF0030002DF236999
:101B3800009395E80F0000F047FE28B1404080F37D
:101B480011884FF0030002DF012323742379F3B1D6
:101B58001C4C2368DBB9002000210322CDE90601D3
:101B6800CDE90232CDE90033049341F64C52164BCD
:101B78001649174815F010F82060164914F0BEFFF2
:101B880028B1404080F311884FF0030002DF01F0D4
:101B9800C9FC28B1404080F311884FF0030002DFF0
:101BA800074800F01FFC28B1404080F311884FF02F
:101BB800030002DF09B030BD68290020200300209F
:101BC800C00200207C290020E9040000F0B20020B7
:101BD800B0150020FD56040037B5184C237C254667
:101BE8004BB301F0CFFC28B1404080F311884FF08F
:101BF800030002DF00F020FC28B1404080F3118888
:101C08004FF0030002DF2369009395E80F0000F00E
:101C1800A9FD28B1404080F311884FF0030002DF8E
:101C280000230748237436F042FD064803B0BDE898
:101C3800304036F03CBD03B030BD00BF68290020FD
:101C4800C0020020200300200023F0B54FF0FF362B
:101C58004FF0FF3785B0104C02932046CDE900675E
:101C680003AA02A936F0F9FC28B1404080F3118894
:101C78004FF0030002DF0298D0F8045190F8FF30CB
:101C8800D0F80021D0F8FB10009500F0B3FA2046F8
:101C980002A936F0F2FCE0E7800300202DE9F041CC
:101CA80088B01E4680460C46174600F051FC2C4B67
:101CB80005461B78002B4FD12A4805AA04A903938F
:101CC80036F0DEFC28B1404080F311884FF0030065
:101CD80002DF049B042B13D9002200232148CDE9FD
:101CE800002306A907AA36F0B8FC28B1404080F3C3
:101CF80011884FF0030002DF1A4806A936F0BDFC30
:101D080000220023174803A936F089FC28B1404077
:101D180080F311884FF0030002DFFB2C06D9404006
:101D280080F311884FF0030002DF15E02246414698
:101D380003983AF0D4F903994FF4847281F8FF704C
:101D4800C1F8FB40C1F80061C1F80451054803A976
:101D580036F068FC0028E2D108B0BDE8F08100BF89
:101D68006810002080030020014B1878704700BFDE
:101D780068100020074B84B01B78CDE901018DF86D
:101D88000C202BB904AB13E9070004B02DF0FDBDFE
:101D980004B070476810002030B587B04FF0FF32AC
:101DA8004FF0FF3303A801F011FA9DF80C50002DF5
:101DB80034D0012D0DD19DF81420049B4AB9023B63
:101DC800042B06D8DFE803F00A0703270D0000F00C
:101DD800C1FF07B030BD2DF0D2FDFAE72DF0D1FDDF
:101DE800F7E7204B18780028F3D11F4A13687BB116
:101DF800B3F57A6F00D258001060FFF755FE00283F
:101E0800E7D0404080F311884FF0030002DFE0E79D
:101E18004FF47A70F0E72DF0B6FDDAE79DF8104040
:101E2800012C08D0022C11D0002CD2D102A901A873
:101E380000F06EFFCDE70B4C2378002BC9D0FFF7DD
:101E480053FE0220257001F08DFCD8E7054B1A7867
:101E5800012ABED001221A70FFF7BEFE204601F00B
:101E680061FCCCE768100020C048002000B51A4883
:101E780089B036F048FC28B1404080F311884FF013
:101E8800030002DF00220023CDE9062300230422F9
:101E9800CDE90133CDE9032300934FF480520F4B72
:101EA8000F49104814F078FE0F4914F027FE28B1A6
:101EB800404080F311884FF0030002DF0B4800F028
:101EC8004FFF28B1404080F311884FF0030002DF34
:101ED800002009B05DF804FB80030020511C0000BD
:101EE80040D000209816002028570400A51C0000A8
:101EF800094B93F8683D6BB14AF27A73984228BF50
:101F0800184648F6E273984238BF18464FF05023F7
:101F1800C3F85C05704700BFA47F0020054B93F809
:101F28005C2D82421EBF002283F85C0DA3F85E2D53
:101F3800704700BFA47F002008B50D4A92F86C1DB9
:101F480081420FD000210328A2F86E1D82F86C0D83
:101F580009D101F0E7FB28B1404080F311884FF028
:101F6800030002DF08BD03202DF0B0FDF3E700BF3A
:101F7800A47F0020F0B505468C498D4E01F54054EC
:101F8800B4F80E3CB24203F6027001EB80008068A0
:101F9800884F9BB0A5EB00003ED1002286F8802137
:101FA800C4F8580D4E2B88BF0023B4F80C2C98BFEA
:101FB80001339A4249D0804AA4F80E3C107808B1FF
:101FC8000020107060225343063301EB430139604F
:101FD8007A4B3E681B785BB3794B60210093794B51
:101FE800794A1B6802A836F097F928B1404080F377
:101FF80011884FF0030002DF0323C021009330460D
:10200800602302AA36F0A7F990B1404080F3118806
:102018004FF0030002DF0BE006F1C00C624503D16C
:10202800002286F88121BBE7C4F8580D002AB9D1EF
:10203800002138682DF0FCFC94F85C3D032B00F27D
:10204800B380DFE803F02A375F86FFF78DFE38B9E3
:102058000122594B1A70D4F8503D1344C4F8503D2E
:1020680096F880314BB901233E6086F88031C02252
:10207800002138683AF053F8AAE796F881312BB96D
:10208800012386F88131514B3B60F0E7404080F3F3
:1020980011884FF0030002DFE9E7D4F8543D002B24
:1020A80000F082800120C4F8603D1BB0BDE8F0401C
:1020B800FFF734BFB4F85E3D01339BB2632BA4F83D
:1020C8005E3D71D9D4F8603DD4F8542D03F5C3337F
:1020D800A0339B1A3E4A534340F24B1293FBF2F350
:1020E80041F2987203F51B4003F6CC33AE309342AD
:1020F800C4F8640D01D90020D7E780B2FFF7F8FED5
:102108000220D2E7B4F85E3D01339BB2632BA4F8FA
:102118005E3D49D94FF47A73D4F8542D2C48521B9C
:10212800B2FBF3F103FB112240F24B13B2F5FA7F35
:1021380088BFA2F57A72504390FBF3F0D4F8643D5F
:102148000F32184480B2FFF7D3FE1E2A2CD8032082
:10215800ABE7B4F85E3D01339BB2632BA4F85E3D58
:1021680022D94FF47A73D4F8540D401BB0FBF3F224
:1021780003FB120040F24B13B0F5FA7F88BFA0F5BD
:102188007A7000EBD07042101148504390FBF3F086
:10219800D4F8643D2032184480B2FFF7A9FE402AE3
:1021A800A9D80023A4F85E3D1BB0F0BDA44F0020C1
:1021B8001C4E0020184E002020AA002021AA002032
:1021C800144E0020A04F002034A60020DC4E002032
:1021D80018FCFFFF48F6A043A0F57A629A429DBF1B
:1021E800034BC3F8740D00206FF01500704700BF53
:1021F800A47F00202DE9F04F774E9A46737885B07A
:102208008046894615460E9F002B7BD006F5405424
:10221800D4F8541D914275D094F85C2D89B9032ADD
:10222800C4F8545D16D194F86C3DD4F8742D012B84
:1022380021D0022B00F0928073BB0120C4F8703DBE
:1022480009E043F697206B1A834207D9032AC4F89A
:10225800545D0CD00020FFF76FFE1DE0A3F51C5362
:10226800063B142B84BF01F51C551035D7E7022017
:10227800FFF762FED7E7B4F86E3D591C092BA4F8A6
:102288006E1D42D8D4F8703DD4F8581D5B1A13441B
:10229800DB1B2B44C4F8703D03AB009352464F4BF5
:1022A8004946404600F0D8F9039BB3F5F06F29D1B1
:1022B80006F54053B3F80C5CB3F80E3CEB1A462B0A
:1022C80020DC4FF000084FF0600909FB05F0716849
:1022D80006304144C02206EB400039F000FF08F107
:1022E800C00805F602734E2D88BF002506EB830350
:1022F80098BF0135B8F5F06F9F6007F57A77E4D19C
:10230800A4F80C5C05B0BDE8F08F0A25D4F870BDC0
:1023180040F2E6339BFBF5F505F2F3129A421BD91E
:102328000220FFF709FE1BF1090F1FDA2C4BA5F558
:10233800FA759D424ADB4FF47A7395FBF3F5002258
:10234800B4F80C3C002B44D0013B9BB2013AAA42A2
:10235800F8D1A4F80C3C9FE703207CE7B4F86E3D65
:102368005A1C082BA4F86E2D96D973E74AF2270356
:1023780005F5FA759D424FF47A7325DCB5FBF3F544
:102388004FF0600B03FB1575B4F80C0CC0220BFB67
:1023980000F00630002106EB400039F0C0FEB4F82A
:1023A8000C3C4E2B03F6027288BF002306EB820218
:1023B80098BF0133956005F57A7598BF9BB2AF4217
:1023C800A4F80C3CE0D167E72825D9E76FF027058A
:1023D800B5E74F23BAE700BFA44F0020A84F00205D
:1023E800D95FFFFF38B5124D2B78DBB16C78E4B9B3
:1023F80043F648522146A86005F10C0039F08FFEDB
:102408004E2205F5405303F64C302146A3F80E2C16
:102418002DF017FB074821462DF00AFB0123204623
:102428006B7038BD6FF08B00FBE76FF07700F8E753
:10243800A44F0020308A002038B50B4D6B787BB153
:1024480000246C702DF008FB084B2046A3F880414F
:1024580005F54055C5F8544DFFF76EFD204638BDCB
:102468006FF07700FBE700BFA44F00201C4E002050
:1024780010B50B4C43F678520021204639F04FFE38
:10248800084800F0C1FE0123237004F5405484F885
:10249800683D42F21073C4F8743D002010BD00BFBF
:1024A800A44F00207D1F0000F8B51D4A1D491E4895
:1024B80013F028FA1D4B0446984201D02046F8BD77
:1024C8001B4E194813F068FA304612F08BF9A042F7
:1024D800054601D02846F2E73078164A164E40F0F5
:1024E8000043C6F8C030C2F89C3112F081F9A84206
:1024F8000446E3D1114F384612F074F9A04205465C
:10250800E8D138780E4A40F00043C2F89031C6F856
:102518008C3012F06DF9A84208BF0020CFE700BF49
:10252800C1F70200E003002018D103000000AD0B42
:1025380022AA0020008002500000015023AA002097
:1025480000A00250014BD3F840057047000001502D
:102558000121014838F0BBB918D103002DE9F04F2B
:102568003B4CADF29C7D06468B46904600214FF4CD
:10257800F06206A81F4639F0D2FD2379002B60D0FF
:1025880094F800A0BAF1010F5ED105AD0DF576798A
:102598005946102230460195CDF8009006AB36F02A
:1025A80003F8834630B9237B012B05D0022B22D0B8
:1025B8006FF01200834619E00DF11203607B02935D
:1025C800244B4FF470740193A0230093296806AD3F
:1025D8005B465A4604FB005003F004FC0028E9D18E
:1025E8001C4BC8F80030BDF812303B6058460DF25D
:1025F8009C7DBDE8F08FA023164E0DF112040093C8
:102608000294019603460246296806A803F0EAFBED
:102618000028CFD1BDF8123002941E44C3F1A003A4
:102628009BB20093019653465A464846296803F0E0
:10263800D9FB0028BED1BDF812305B00ADF81230CE
:10264800CEE76FF0050BD1E76FF0120BCEE700BFB6
:102658001C8D0020A4B100202DE9F04FDFF8009177
:10266800ADF2A47D059399F8013006460C469046D4
:10267800002B6FD000234FF46F72194609A80893F6
:1026880039F04DFD002399F800B006AFBBF1010FFA
:1026980007AD3B602B6010D14FF46F721946F9A853
:1026A800F89339F03CFD99F802200DF5787A012A63
:1026B8004FF0000304D0022A24D06FF012001DE06E
:1026C80008AA009230464FF47072CDE90158A1B2C1
:1026D80003F0C6FB90B9214B0197009399F80320AA
:1026E8001023296808A835F0ABFE38B90020069AEF
:1026F800DDF8C8371A60194B059A13600DF2A47DEE
:10270800BDE8F08F08AA4FEA5409C4F34F040092B9
:1027180021464FF470723046CDE9015803F0A0FB12
:102728000028EBD15B464FF470722146CDE9015881
:10273800CDF800A006EB090003F092FB0028DDD1DC
:10274800064B01970093514610232A6808A835F0D4
:10275800F5FECAE76FF00500D0E700BF24AA002005
:102768001C8D002084B010B502AC84E80F00154C15
:102778009DF808302278934220D1012B04D0002004
:10278800BDE8104004B070479DF80C304BB1237978
:1027980013B96FF07700F3E703F092FB0028EFD14D
:1027A80020719DF80930002BE9D06378002BF0D018
:1027B80003F0A4FB0028E3D16070E0E76FF012009B
:1027C800DEE700BF1C8D002084B030B585B008ACB2
:1027D80084E80F009DF82030012B05D0002005B0BB
:1027E800BDE8304004B070471E4C2378012B0CD153
:1027F8009DF8243093B99DF8213013BB194C08ADCE
:102808000FCD0FC42B682360E8E7002142F2107255
:1028180008462FF083F90028EAD0E0E72379F3B9D6
:102828000DF10E0301939DF82C3042F210720093C3
:1028380010214BF680300A9B03F07EFB0028DAD08B
:10284800CDE763785BB942F2107210214BF6803005
:102858009DF8223003F0C2FB0028CFD0BFE76FF00D
:102868007700BCE71C8D0020014814F0B7BC00BFFE
:10287800308D0020002330B593B0ADF81A3028B160
:10288800404080F311884FF0030002DF214C002004
:10289800214605F04DFD237807AD032B34D8DFE83A
:1028A80003F0022D2F311C49284639F0E8FC059524
:1028B80063781E210493A378184A0393E3780AA83F
:1028C80002932379019363790093A3792DF0EFF9AB
:1028D8000DF11A002CF078FF28B1404080F31188E0
:1028E8004FF0030002DF01214FF400302CF09AFF73
:1028F8000B4B1B6813B0BDE8304018470949D3E7B4
:102908000949D1E70949CFE70A212846084A2DF0A5
:10291800CEF9CCE744B200208A570400B35704002C
:10292800408D00209157040098570400A2570400D6
:10293800AC570400D3B590B31A4B00260027186093
:102948004FF480420023CDE90067174815F046FA96
:10295800164805F005F80446134839F0FFF9DCB9C4
:1029680021461D2210202CF083FF0446A0B9014601
:102978001C2211202CF07CFF044668B90C490D4834
:1029880038F0D0FF4FF4004200230B48CDE9002374
:1029980032463B4615F022FA204602B0D0BD6FF011
:1029A8001504F9E7408D0020101100207D28000053
:1029B800F7F70200308D00204811002009B9014BBB
:1029C8001A70704769100020044B1A7822B100224F
:1029D8001A7009B90BF0D0BF704700BF6BB2002066
:1029E80008B501210BF092FF10B90122014B1A70B2
:1029F80008BD00BF6BB2002007B50B4B1B78012B3D
:102A08000DD0022B0DD101238DF80030002369462B
:102A18008DF801300BF0D2FF03B05DF804FB022300
:102A2800F2E76FF08B00F7E76910002007B5094B54
:102A3800094A01931A60094A68465A601023ADF89A
:102A48000030C3238DF802300BF0B0F803B05DF806
:102A580004FB00BF908D0020D3F80200CFF80200DD
:102A68000548064B0360064BC363064B0364064BDD
:102A780083630BF045BF00BF448D0020D1290000BF
:102A8800D1F8020005F90200C529000013B50A4B68
:102A980010461C6874B18A79084BD2431B7802F03F
:102AA800010200930B68018AC068A047044A1368B2
:102AB8000133136002B010BDD88D00206DB2002024
:102AC800988D0020F7B51D4F1C467B6806461546B5
:102AD80073BB204634F029F9283873282BD8012DE8
:102AE80029D16378062B09D101A9204634F005F9CC
:102AF800204634F01AF9204634F0E2F800202CF091
:102B08008BFF28B1404080F311884FF0030002DFAB
:102B1800089B099C0A4D1F600FCD0FC495E8030060
:102B280084E803003046FFF75BFF002003B0F0BDE8
:102B38006FF00B00FAE76FF01500F7E79C8D0020A7
:102B480044D1030008B5064838F0A6FD002205491F
:102B580010460AF01DFCBDE80840034814F03EBBCF
:102B6800DC120020752B0000C88D002010B50B4B1F
:102B78000446186838B900222146BDE810400023F1
:102B8800074814F0ADB830F05FFB07220146204635
:102B980039F095FA0028EED110BD00BFC48D002091
:102BA800DC12002070B503788AB004460E4607ADE3
:102BB800032B20D8DFE803F002191B1D1149284612
:102BC80039F05DFB059563781E210493A3783046A0
:102BD8000393E3780C4A0293237901936379009372
:102BE800A3792DF064F80AB070BD0849E7E70849F1
:102BF800E5E70849E3E70A212846074A2DF057F890
:102C0800E0E700BF8A570400B35704009157040057
:102C180098570400A2570400AC57040030B593B08D
:102C280003AC0023002221461E4814F0B1F80346E5
:102C380030BBA021F022CDE9071233221A4D0090B3
:102C48000146ADF814008DF8160006920246286871
:102C580009942FF0ECFF18BB286805A92FF0C6FFD0
:102C6800F0B920460AA9FFF79DFF0023ADF82830E8
:102C78008DF82A300C4B0AA9186830F006F80FE0D6
:102C88000A4B0B4918680BF0FDF8034640B9009051
:102C980005480422074900682FF0C9FF0028E4D03E
:102CA80013B030BDDC120020DC8D0020E08D002048
:102CB8006EB200205CD1030030B50446084D89B0DF
:102CC80019B100232B6009B030BD30F0BDFA694658
:102CD800FFF768FF204630F0E2F92860F3E700BF0D
:102CE800C48D002010B5094C88B0236883420BD1ED
:102CF80030F0AAFA6946FFF755FF206830F0E3F98B
:102D080000232360FFF71EFF08B010BDC48D00200C
:102D18002DE9F041DFF838800546D8F80C000F4659
:102D280033F0CEFF094E96FBF0F6D8F80C0033F0DE
:102D3800FCFF0446D8F80C000DF018F87443E400C2
:102D480038602C600020BDE8F08100BF40420F00D1
:102D58009C8D0020014B1868FFF74EBEC48D0020E3
:102D6800F0B52F4D06462B7887B0002B51D12D4852
:102D78000DF01CF82C4806F007FBFFF757FE044639
:102D8800F8B9FFF76DFE0446D8B9284B1E60284EE7
:102D9800304600F07FFE012026490CF01FFF044654
:102DA80078B9307880B901210846234B99740CF022
:102DB80033FF044628B9052101200CF045FF0446DD
:102DC80040B1204607B0F0BD012826D102211A4B98
:102DD8009974ECE719491A4833F039FF194916482C
:102DE8000CF0F4FF04460028EBD1174F01AE0FCFCB
:102DF8000FC63B682146154A01A8336005F05EFD01
:102E080004460028DDD11249124838F08BFD012311
:102E18002B70FFF797FE0024D3E76FF08B04D0E701
:102E28006CB2002020D1030010040020D88D0020AF
:102E38006DB200202C04002098040020E803002034
:102E48009C8D0020E08D002060CE0300DC8D0020EA
:102E5800252C0000C88D00200A4608B50123C0B201
:102E680003FA00F1054832B18368DB6898470038F7
:102E780018BF012008BD83681B69F7E700C7030076
:102E8800F8B50125144B154E1960154B15491A60F4
:102E9800154BB7684B6005FA00F38B60FB69044675
:102EA8000BB90120F8BD2A46304698470028F8D1CA
:102EB800E1B233698D401B684FF0A0721D4214BF08
:102EC8004FF080634FF000733046BC69A04700386C
:102ED80018BF0120E6E700BF088E002000C70300E6
:102EE800048E0020F88D0020F52E000008B50B4B4D
:102EF800196829B9404080F311884FF0030002DFB8
:102F0800B2F5002F09D1064A00201B6811689847BE
:102F1800BDE80840034814F081B808BD088E0020B9
:102F2800048E00208413002008B54FF0FF324FF0C4
:102F3800FF330B4813F086FF28B1404080F3118817
:102F48004FF0030002DF074B9B8803F440532BB17B
:102F5800404080F311884FF0030002DF08BD00BF36
:102F6800E48D0020F4040020064B9B8803F44053B2
:102F78002BB1404080F311884FF0030002DF024874
:102F880013F0DABFF4040020E48D002010B58AB0F5
:102F98000D98042825D108930C9B0024099304ABB1
:102FA80002930323CDE9041201AA0393CDE9062075
:102FB8000194FFF7B9FF4FF480730B498B800B48DE
:102FC80083681C6802AB1A46A04728B1404080F3CA
:102FD80011884FF0030002DFFFF7C6FF00200AB098
:102FE80010BD0120FBE700BFF404002090C70300D8
:102FF80038B50446054D4FF0FF324FF0FF332846F1
:1030080014F032F8204602F0DBFAF4E784130020CB
:1030180030B58BB018460F9B042B02D001200BB0A3
:1030280030BDCDE9041201AACDE906230E9B002488
:10303800099304AB02930323019403930890FFF7C9
:1030480073FF4FF4807307498B80074802AA83688F
:103058001D682346A84704460028DFD1FFF784FFF0
:103068002046DCE7F404002090C70300F0B593B0D5
:1030780007462822002108A839F051F83A4838F0C4
:1030880034FB3A4838F0FBF920B96FF005042046C4
:1030980013B0F0BD364B9B68186838F0F0F900287B
:1030A800F3D0344838F0EBF90028EED04FF48031F3
:1030B80031482CF071FC04460028E8D12D4838F03E
:1030C800DEF90028E1D04FF480312C482CF064FC64
:1030D80004460028DBD1274838F0D1F90028D4D09D
:1030E8004FF4003126482CF057FC04460028CED176
:1030F8004FF4A4720023CDE906230523CDE900701F
:10310800CDE9020304904FF42F721E4B1E491F484D
:1031180013F042FD1E491D4813F0F0FC0446002838
:10312800B5D138462EF092F80028AED1194E08AD28
:103138000FCE0FC596E80F0085E80F00164B3846EE
:1031480010931E2308A9119302F0F2F900289CD1CC
:10315800384602F00DFB002897D1BA680F4B9A4207
:1031680018BF6FF0040492E7E48D002090C70300B5
:10317800F404002000C70300ACD10300A4D103006D
:103188009CD10300F92F000040E0002080170020A8
:10319800F95704007CD10300A4050020637A0400D9
:1031A800034BD8681B6AC01A431F584258417047DE
:1031B8000C130020014620B100220023024813F01E
:1031C8008FBD6FF00D0070470C13002001460148B9
:1031D80013F0DEBD0C130020012970B504460FD191
:1031E80070B1084B1D685DB103680BB943683BB10A
:1031F800FFF7A8F9D4E900122B46BDE8704018473C
:1032080070BD00BF0C8E0020014B1860704700BFD6
:103218000C8E002007B54FF0502349F6AE32C3F8A4
:103228005C25012200219A610D4801AA34F0EEFFC5
:10323800002805DB019B0B4A197918680FF06AF81A
:1032480000220121282002F0B3FF282002F080FF8D
:103258000549064803B05DF804EB11F07DBE00BFD8
:10326800B4D1030000800250E13100000C050020B9
:103278000022014B1A70704774B2002010B5234C1D
:1032880086B0237863BB6AB3531E13402AD1520811
:10329800194603F10103FAD1CBB29A1E022A2FD89C
:1032A80000238DF81430012304918DF80C30FFF7BA
:1032B80077FFA8B103A8FFF77DFF28B1404080F34E
:1032C80011884FF0030002DF01232370002200233E
:1032D8000F48CDE9002340F26762002314F07EFD19
:1032E80006B010BD404080F311884FF0030002DFA4
:1032F8000021404080F311884FF0030002DFCFE740
:10330800062BCDD0052BF4D1CAE700BF74B200203C
:10331800A0100020F7B5134F06460D46386838F060
:10332800AEF80446B8B1CDB138680769836801A919
:103338005B68984728B1012801D100202C7003B0A0
:10334800F0BD019B3A685A40012303FA06F0024295
:1033580008BF0024F1E76FF01200F0E76FF01500E6
:10336800EDE700BF108E00202DE9F84F2E482F4EB4
:10337800306038F084F800284FD000274FF001085B
:103388002B4D2C4CDFF8B090AB68306895F804A052
:1033980043F4803EDA02D0F808C0016906D513F478
:1033A800402F03D0DB0748BF8EF4402E0B681EF079
:1033B800010F08FA0AFB14BF4BEA030323EA0B03C5
:1033C8000B60DCF8003051462EF48012984710BB91
:1033D800C4E9019B30688368DB690BB3012221468D
:1033E8009847C0B9306802698368126851461BEA79
:1033F800020FD3F818B04FF0A07214BF4FF08063DB
:103408004FF00073D84730B903370F2F05F10C057B
:1034180004F10C04B8D1BDE8F88F6FF01200FAE798
:103428006FF08500F7E700BF00C70300108E00208B
:1034380040D20300148E00208532000070B5044687
:103448000A4E00EBC105AC4201D100200DE0D4E9E1
:103458000012012904D1104638F05AFC0834F2E76A
:1034680030462DF0E3FE0028F8D070BD508E0020C5
:1034780037B5054644F618010D4801AA2DF0CEFED1
:1034880098B99DF8044044F61801019404EB4504EA
:10349800802CA8BF802424EAE474054844F4007210
:1034A8002DF0C4FE08B9034B1C6003B030BD00BF4B
:1034B800508E002024050020802828BF802044F654
:1034C800180140F4007201482DF0B0BE508E002063
:1034D80050B9064B44F618011A68054822F44072A0
:1034E80042F400722DF0A2BEFFF7C2BF24050020EF
:1034F800508E002007B544F61801094801AA2DF09E
:103508008DFE50B9019A44F6180142F480730448BC
:1035180042F4407201932DF089FE03B05DF804FB7C
:10352800508E002008B509211148FFF787FF034690
:10353800D8B904210F48FFF781FF0346A8B90E2127
:103548000D48FFF77BFF034678B903210B48FFF7C7
:1035580075FF034648B9FFF7BBFF034628B9BDE826
:10356800084003210648FFF769BF184608BD00BF99
:1035780094D3030074D30300E4D203005CD30300A4
:10358800CCD2030008B501210548FFF757FF28B939
:10359800BDE8084002210348FFF750BF08BD00BF3F
:1035A80054D30300BCD2030010B5124C204637F0A8
:1035B80066FFE0B12269A1681368204643F400134E
:1035C80013600B680C4A1521984778B90B4C4220B8
:1035D800002114F0ABF92046FFF748FD30B902216D
:1035E8000748FFF72BFF08B90223236010BD6FF0CF
:1035F8000500FBE700C7030001000600508E00200D
:10360800BCD20300142270B5114C034602FB0042E1
:10361800506852780D462AB901B10121BDE87040C1
:103628002CF026BA002603EB830304EB830425FA67
:1036380006F313F0010118BF012154F8040F2CF010
:1036480017FA18B90136032EF1D1002070BD00BF5A
:10365800E08E0020F8B500240E4D0F4E0F4F337842
:10366800E0B28342297803D881F001012970F8BDBE
:10367800142303FB00731A7C52B101B1597CFFF784
:10368800C1FF28B1404080F311884FF0030002DFEA
:103698000134E4E775B2002077B20020E08E002004
:1036A80070B5094B06461B780C4615464BB1FFF71B
:1036B800A9FF28B91422054B02FB06331D745C745C
:1036C80070BD4FF0FF30FBE776B20020E08E00209F
:1036D800014813F083BD00BF28050020F8B50F4C42
:1036E80005460F46164654F8320037F0C8FE88B132
:1036F80005EB8503D9191423094A04EBC60002EB2C
:10370800810103FB0522012348605370BDE8F8409E
:103718002CF0C2B96FF01200F8BD00BFDCD3030073
:10372800E08E00200FB407B514229DF810000C4B52
:1037380002FB00335A783AB90721FFF7B1FF03B00B
:103748005DF804EB04B07047059905AB01934B1E77
:10375800062B02D80022C9B2EFE76FF01500EEE79A
:10376800E08E00200FB407B514229DF810000D4B11
:1037780002FB00335B7843B901220721FFF790FF72
:1037880003B05DF804EB04B07047059905AB0193ED
:103798004B1E062B02D80122C9B2EFE76FF01500C5
:1037A800EEE700BFE08E00202DE9F04FDFF8FC9037
:1037B80085B099F80060002E66D10923DFF8F0A0E3
:1037C800DFF8F0B08AF800309AF80030F5B2AB4272
:1037D8000CD84FF4804200232D48CDE9002314F083
:1037E800FDFA0123002089F8003033E04FF000088B
:1037F8005BF825700A22384603A9CDF80C802BF017
:10380800A1FB039B04469F423BD03846214938F030
:103818006FFD38B12A464146E0B2FFF75FFFC8B9ED
:103828000136D1E738461C4938F062FD10B12A4606
:103838000121F1E73846194938F05AFD804610B1A0
:103848002A460221E8E73846154938F051FD20B9E3
:103858006FF0120005B0BDE8F08F124F57F8350031
:1038680037F00DFE0028F3D014220F4BE4B202FB10
:10387800043307EBC500586083F801802CF00CF97D
:10388800CDE76FF00500E5E74FF0FF30E2E700BF56
:10389800D8100020B4580400C2580400D2580400BC
:1038A800A9580400DCD30300E08E002076B2002083
:1038B80077B2002024D4030030B50024104D89B01D
:1038C80055F8340037F0DBFDB8B10134042CF7D1DA
:1038D800002200230024CDE9062306234FF490623A
:1038E800CDE90334CDE90144064B07490748009464
:1038F80013F052F9204609B030BD6FF01200FAE714
:10390800C8D403001939000000E30020681800201B
:1039180010B5074C4FF0FF324FF0FF33204613F03D
:10392800A3FB00214FF4882014F000F8F2E700BF51
:103938005413002007B50F482CF0E5FDB8B96A46C6
:1039480001210C482CF029FE70B90221094801AA6E
:103958002CF023FE40B90848084BC3600CF018FB54
:1039680010B90122064B1A7003B05DF804FB6FF022
:103978001200F9E79F590400380500209459040003
:1039880078B200202DE9F84F3A4E054633783A4C84
:1039980043BB204637F073FD20B96FF0050420467D
:1039A800BDE8F88F2269A1681368204623F0807368
:1039B80013600B684FF4C02218219847044600286A
:1039C800EDD12E4C2E48206037F059FD0028E4D068
:1039D800206883682B491B68984704460028DED175
:1039E800012333700122182123482CF073F8044670
:1039F8000028D4D1052038F08BF9204B186883684B
:103A080021495B68984704460028C8D10246182116
:103A180019482CF05FF804460028C0D1DFF8708000
:103A280007464FF0FF0A4FF0FF394646174BB3F9E8
:103A380000B0D8F8100008F11408A0EB0B0038F01B
:103A480027FB484538BF5FFA87FA07F1010738BFF7
:103A580081460C2FEDD1B9F1450F9FBF142303FB0D
:103A68000A660FCE0FC596BF33686FF01C042B6033
:103A780095E700BF79B2002000C70300E491002059
:103A880030C70300C0150400E4D40300F4A90020E3
:103A9800F8D40300014B1B78037070477AB20020FA
:103AA800014B187000F014B87AB2002008B500F085
:103AB80009F8022828BF0020014B187008BD00BF74
:103AC8007AB20020014B93F8F40070470080FF00A1
:103AD80038B50D4D044695F8F430834201D10020E5
:103AE80038BDD5F8F43001330AD10146074836F01D
:103AF800B9FE95F8F430A342F1D06FF00400EFE777
:103B08006FF01D00ECE700BF0080FF00F480FF00AD
:103B180030B5002587B0CDE903010446009503A917
:103B280005480595FCF778FDDDE904309842B8BFF3
:103B3800255407B030BD00BF91FC02002DE9F047C5
:103B4800058B04462807904611D4022905F007057D
:103B580040F0CD8020462CF067FB78B10138218BEE
:103B6800042811D8DFE800F0C3106D8595000129FD
:103B78000CBF45F0100545F02005258388F3118812
:103B8800BFF36F8FBDE8F08701F0070AAA4500F080
:103B9800A6800027B9463E46A368002B00F0BD80EA
:103BA80041F00801218388F31188BFF36F8FA16862
:103BB800002900F0BB800D68002900F0B78033466B
:103BC80052462046D1F80480C047002D76D02B6895
:103BD80029461D46F0E701F007035A1F012A1BD8A2
:103BE800002221F00701062B276889B2C4E90022C8
:103BF80009D13B4603E0628B013262831B68002BCC
:103C0800F9D141F00201204621832CF00DFB002858
:103C18007BD041F0200177E0042B0AD121F0070185
:103C280089B2204621832CF0FFFA10B141F020011F
:103C38002183218B01F0070AAA4550D00027B946F5
:103C4800AAE7236921F0070141F00601062DD3F800
:103C5800009021832DD1B9F1000F40D041F0080127
:103C6800218388F31188BFF36F8F20463949C847ED
:103C780029E021F00701236941F0040189B2042DEC
:103C8800D3F804902183E6D000274FF0040A3E467B
:103C980082E721F00701236941F0050189B2052D6A
:103CA800D3F808902183D6D000274FF0050A3E4666
:103CB80072E700274FF0060A3E466DE72B4687E776
:103CC800B9F1000FD1D14FF02003EFF3118883F33E
:103CD8001288BFF36F8F238B23F008032383258B70
:103CE800EA062ED525F01003238305F0070566693B
:103CF800218B002EBFF66FAF00232768C4E900337D
:103D080021F0070141F001012183218B4FF00009C7
:103D180001F0070AAA457FF43FAF002F9BD041F07E
:103D28000801218388F31188BFF36F8F002FC7D054
:103D38003D6839463346524620462CF0A1FA2F46B4
:103D4800F4E7AB067FF51AAF25F02003238305F0CF
:103D58000705FFE6B502030010B5094C0A44914275
:103D680000D110BD11F8013B58400309E35C000184
:103D7800C0B243401809205C1B01DBB25840EEE793
:103D8800EA590400F0B5024601680A270020074EE8
:103D98000B461C780131355D6D0701D41360F0BD09
:103DA80007FB0043A3F13000F2E700BF656F040092
:103DB8002DE9F84F15469A46D378224A6F2B12F808
:103DC80003B080460F460BF0030B29D024D8582B9C
:103DD8000CBF10260A26DDF82890324600234046FC
:103DE8003946FCF7B5F9092AD4B21ED83034B045A3
:103DF800E4B277F1000709F8014D01D3D14511D894
:103E08002B789B0605D5082E15D1AB7843F008030F
:103E1800AB704846BDE8F88F03F0F703702BD7E77F
:103E28000826D8E780460F46D7E7BBF1010F0CBF3D
:103E380037345734DBE7102EEBD1AB7843F010035F
:103E4800E6E700BF656F040010B5094B094C00F0A8
:103E58001F024009012818BF234603EB8203D3F849
:103E6800002222F0E04242EA0172C3F8002210BDAB
:103E7800002884500025845070B54FF02003EFF3DC
:103E8800118683F31288BFF36F8F0125204B214CD5
:103E9800C3F8005502230321C4F8D0360020FFF7E9
:103EA800D3FF2846FFF7D0FF7E23C4F80C37C4F8A9
:103EB8003C397F23184A1949C2F818310023C1F840
:103EC800043EC1F8083E01F54821C1F81031C2F896
:103ED8002431C2F82C3102F5FF1202F58052C2F8E3
:103EE800A032C4F80457C4F80459C4F8005B1C464F
:103EF8000B4D012115F8010B0C44FFF7A5FF072C0A
:103F0800F7D186F31188BFF36F8F002070BD00BF13
:103F18000010005000400050002000500090035056
:103F2800005A0400052370B5174D184E2C7801343B
:103F3800B4FBF3F303EB8303E41A34F063F9144A94
:103F4800144B117851B156F82410401A072805D897
:103F58001A780AB901221A70002070BD0021197060
:103F68004FF05023D3F8140138B1C3F81411D3F823
:103F780014312C700CB9012313702C7834F042F9E9
:103F880046F824000120E8E77DB20020E8910020EF
:103F98007CB200207BB2002048B1054B054A1B6863
:103FA800B3FBF2F35843044B43F00103184770473F
:103FB800A00D002040420F0040D00300062807D182
:103FC8000122044BC3F80025BFF34F8F20BFFDE744
:103FD800704700BF0040005010F0FAB908B5044817
:103FE80037F083FB034B0020C3E9003308BD00BF53
:103FF800FC91002010920020F8B50646FCF767FAFD
:104008000546124F4FF0FF324FF0FF33104812F0C1
:1040180019FF3C68BC420AD1002412E0A068FCF7F2
:1040280056FAA84206D07B689C42F5D02468002C3A
:10403800F4D1F1E72A463046A16838F028F900287B
:10404800F1D1034812F078FF2046F8BD1092002005
:10405800FC91002010B504464FF0FF324FF0FF33BB
:104068000C4812F0EFFE34B96FF01504094812F04D
:1040780063FF204610BDA0680028F5D0FFF7BCFFFD
:104088000028F1D1044B5A68C4E9003214605C601E
:104098000446EBE7FC910020109200202DE9F7433D
:1040A8000F4606460821C06A2CF016FB80463C687D
:1040B800DFF84890241A3C6004EA0905AC4203D8AA
:1040C800002003B0BDE8F08308236A462146304645
:1040D8002CF075FA0028F4D1694630462CF006FB1E
:1040E80040B1BDF80230BDF8042005EA09051344C3
:1040F8001D443C60A4EB0804E0E700BF0000FFFF9C
:104108002DE9F047044688B000F11407384637F027
:10411800ECFAA06A8368DB689847E06228B96FF018
:104128001505284608B0BDE8F087A06A8368DB68F3
:1041380098470368013B1F2BF1D8A06A216805AA9C
:1041480033F08CFF0028EAD1A589002DE7D0069B23
:10415800B5FBF3F203FB1255002DE0D1E389012BE7
:10416800DDD9E36A009593F804904FF0FF334FF0E0
:10417800FF32384612F066FE0821E06A2CF0ACFAED
:10418800A8460646E3891FFA85FA534508D8E38905
:10419800434523D1384612F0CFFE6FF02C05C0E717
:1041A800A1892B04891B13FA81F14A46082320466A
:1041B80000912CF052FA78B1694620462CF00DFA9D
:1041C80008F1010808234A46204600991FFA88F892
:1041D8002CF043FA0028DAD00135D3E753450BD148
:1041E800009908234A462046891B2CF036FA18B94C
:1041F800694620462CF0F1F969462046FFF74EFF44
:10420800054618B1384612F097FE8AE7009B4FEA38
:1042180013484FEA08486360C4F80880D4E90113DA
:1042280099420FD30823204601AA2CF0C8F9054665
:104238000028E7D101AB13F8012B914533D10135A3
:10424800082DF8D1636869461B0C1B0420460093AF
:104258002CF0C3F94A462046A38900992CF0FDF9B1
:10426800051ECFDB636876D04FF6FF7906EB0308AF
:10427800A3891FFA88F29B1B9A42CDF800802ED39F
:1042880000236168002B43D0090C090420460091E3
:1042980069462CF0A2F9204600992CF003FA05464D
:1042A800002D74D0AEE7204601A92CF01FFA6268F1
:1042B80010B9921B6260B1E7BDF80850BDF806104E
:1042C800E06AC4F8088029442CF006FA4044904279
:1042D800A060EED1002DECD06FF01C0568E008233B
:1042E8004146204603AA2CF06AF90546002889D1E0
:1042F800204603A92CF0FAF930B1BDF80C304B4533
:1043080002D1BDF810300BB1B044B1E70123B8E7D2
:1043180020462CF0C7F9054600287FF473AF636880
:10432800264AA18913400B44A3EB4603636013405C
:104338002046A3602CF0BCFAB1E74A4620465B1A37
:104348002CF08BF9051EFFF65DAF08D0E26AA36872
:1043580012681344A360D4E901318B42EDD8616837
:10436800A38901EB46029A429AD1DFF85080A268ED
:1043780001EA08039A4293D020462CF093F90546A7
:1043880000287FF43FAF636803EA0803A360A389AA
:10439800A288A3EB46039A4206D0384612F0CCFD19
:1043A800012300252374BCE620462CF06CFA054650
:1043B800384612F0C1FD002DF2D0B2E60000FFFF32
:1043C8002DE9F04F1D46037C04468946904689B086
:1043D800002B00F0BC80C26A082110462CF07CF942
:1043E8008246294610462CF077F9A3890746A3EBA5
:1043F8008A039D4200F2AE801DB1B8F1000F00F0B3
:10440800A98063680393204604AA03A9DDF80CB0C9
:104418002CF0A4F90646002864D1BDF810304B45AD
:1044280005D06268039B9A42EDD1E5B95AE020466F
:1044380004A92CF05BF90028F3D0BDF81200BDF8F0
:10444800143075B19D420ED14FEA1B410904014455
:104458002B46424620462CF0CDF8002803DC0646C1
:1044680040E0002B3ED0002F40D104F1140301930B
:104478004FF0FF324FF0FF33019812F0E3FCDFF802
:10448800DCB0E3899E425FD0D4E90123F9188A425F
:104498002FD3ADF81A30FF2306A88DF81E30ADF8DB
:1044A8001890ADF81C502CF0CFF82B464246A16866
:1044B80020462CF09DF929468246E06A2CF00CF93A
:1044C800A2680244A260BAF1000F07D1204606A9EB
:1044D8002CF0C8F9002814BF8246AA46019812F0A9
:1044E8002BFD5646304609B0BDE8F08F5744BFB2A1
:1044F800BBE70821E06A2CF0EFF84FF6FF73ADF840
:1045080018300023ADF81C301318ADF81A30A38901
:1045180002EA0B021A44101A606006A82CF094F8FC
:1045280006A920462CF09EF92046211D2CF055F8AE
:104538006368204603EA0B03A3602CF0B9F98246AE
:104548000028CBD101369CE76FF01B0AC6E76FF055
:104558000C06C7E76FF01506C4E700BF0000FFFFB1
:104568000020014B186070470000072030B50C464A
:104578000E4985B00291D0F8AC110546CDE900315D
:1045880000F1E0014FF0FF33204611F063FF50B90E
:10459800012384F86430D5F8A83123B1204605B04A
:1045A800BDE83040184705B030BD00BF8F0C030090
:1045B80038B50C46114605462CF067FB034638B95A
:1045C800284604492CF061FB03460020236038BDCF
:1045D8000120FBE7D46504002DE9F04F0123814653
:1045E8000569466885B005F57377D7E8EF2F002A87
:1045F80003D1C7E8E13F0029F7D140F0B880B3689C
:10460800B26A043B2632B3EB420F4FEA420126BF9F
:10461800B3FBF1F3B3FA83F300234FF0010428BF8F
:10462800C3F12003013B9C4005F5E47800F0998034
:104638001022082170689A4002EB44020430994025
:104648000932C5F86002063122F003020A44B16A51
:1046580001FA03FC510001EB4C01C5F86412B16A80
:10466800994000EB4103C5F858320333134423F053
:104678000303C5F854327368C5F85C42C5F8503274
:104688003C4B4046C5E9A963316800F01DFA044671
:1046980030BBD9F804A0D9F81090DAE9073409F545
:1046A800307B012B584608BF103C37F079F90023BE
:1046B800DAF8240030494FF4806201EB802100933E
:1046C8005846234612F090FD09F52C702B4937F017
:1046D80029F9DAF8140083685C681CB96FF057048C
:1046E800002137E04B46264ADAF81810A04704465E
:1046F8000028F5D1DAF8140083681B69002BEDD087
:104708000122DAF81810984704460028E8D11D4B12
:104718002846C5F8A8311C4BC5F8AC311B4B039390
:10472800D5F810320293D5F80832CDE90083D5F8D0
:104738006832B26AD5F8C81300F08EF9044600282A
:10474800CED105F1E00011F031FF0028C5F8D00303
:104758000ADB022138462CF0CDFA204605B0BDE828
:10476800F08F6FF00B04BBE76FF01504B8E76FF03C
:104778007704F2E7E50C030080E70020CB0C030088
:10478800BF0C03005D4800009D0D03002D0D0300C4
:104798002DE9F84306464FF001090569D0F8048071
:1047A80005F57377D7E8EF3F022B03D1C7E8E29FFF
:1047B800002AF7D149D1264805F14001FBF77DFED3
:1047C80020B16FF00F042046BDE8F883204805F1BA
:1047D800B001FBF772FE0028F3D12846D5F8C813BC
:1047E8002CF00BFB044670BB716836694869836816
:1047F8001B6933B3224689699847044618BB06F5F6
:1048080030764946304612F027FD304605F5E47605
:1048180001F080FF3046D8F800102CF02BFB04463E
:1048280088B90146E822304637F079FC21464FF432
:10483800E272284637F073FC214638462CF05AFAC3
:10484800C1E76FF057040221F7E76FF07704BAE782
:10485800D465040013B5044640B100230122CDE914
:104868000032074BD0E9091211F0A8FDA36E1B68AE
:1048780023B1E06E02B0BDE81040184702B010BD89
:10488800D465040013B504460846216901F573711F
:10489800D1E8AF1F022910D193B1A0B10121CDE910
:1048A80000311346D0E9091211F088FD074B9842F0
:1048B80008BF6FF00B0002B010BD6FF00F00FAE7F1
:1048C8006FF04C00F7E76FF00100F4E72EF8FFFFF8
:1048D8002DE9F74388461546066906F57373D3E84C
:1048E800AF3F022B5FD1136823B96FF0150003B0F7
:1048F800BDE8F0831B78002BF7D0D6F8C893B9F140
:10490800000F33D106F5D8774FF0FF324FF0FF3361
:10491800384612F097FA30462A6801A9FFF748FE90
:10492800019C1CB938462CF0E3F9DEE705F10803D1
:10493800A3666B6984F86490E366E46360B1384603
:104948002CF0D6F921463046236E2A68FFF70EFE72
:104958000020C8F80040CAE72022296804F1400076
:1049680037F0A7FC38462CF0C3F9F1E730460F4979
:104978002CF08BF904460028B7D005F108038366AC
:104988006B69C063C366002380F8643020222968FD
:10499800403037F08EFC22460121304600F03EF8C8
:1049A8000028D5D0A1E76FF00F00A0E7D465040078
:1049B8002DE9F04F05460E4690460027D0F8B0A0E6
:1049C80085B0AAF5AE7421463046FBF776FDE0B90E
:1049D800114BA4F1400B0293DAF810303246CDE9BE
:1049E800008329464FF0FF335846AAF5CE7911F0D7
:1049F80031FD60B97023012203FB079383F864201B
:104A0800DAF80C300BB158469847703417B105B036
:104A1800BDE8F08F0127D6E7FF0D03001FB5144648
:104A280090B18AB1012912D10A4B00F1E001029339
:104A3800D0F8AC31403201934FF0FF332046009359
:104A480011F008FD04B010BD6FF01500FAE7002062
:104A5800F8E700BFFF0D03002DE9F04387B00E46CD
:104A6800DDE90E811446DDE910251F4630B329B370
:104A7800DFF850C000F1E009002D08BF65469EB977
:104A8800CDE9034400F5CE742046059636F0E1FCE6
:104A980003ABCDE900432A463B464146484611F060
:104AA800ABFD07B0BDE8F083002241460E924846B0
:104AB8002A4607B0BDE8F04311F0C8BE6FF01500F4
:104AC800EFE700BFB9490000F0B50E46044689B0CB
:104AD80000286FD001230246C3630023D0F8981042
:104AE800364F403040F80C7C42F8301FCDE9013396
:104AF8004FF0FF330093C36D35F060FF304A06ABCB
:104B080092E8030083E80300184611F095FB054678
:104B1800D8B904F1340011F06FFB0546A8B939463D
:104B2800284805AA35F01CFF054670B9059B9A6808
:104B380072B10C33D4F89400C4F8A0302CF08CF97E
:104B4800C4F8D40030B96FF00B05284609B0F0BDA1
:104B58000346EFE7D4F894002CF07EF9C4F8D800A7
:104B68000028F0D0D4F88C30D4F8A010C4F8A830BD
:104B78000423C4F8AC30C4F8C4300223A362124B37
:104B8800B4F89420D4F8D470C4F8B810C4F8D0108D
:104B9800D4F89010236204F1A403A4F8B020C4F858
:104BA800A470C4F8C010A4F8C820C4F8BC00A6615A
:104BB800E362CAE76FF01505C7E700BF285A04008B
:104BC80074CE0300325A040014D6030070B5114B9A
:104BD8000D461C68DCB1104B196800238B4202DBC0
:104BE8006FF0010070BD224612F8106B864202D0A9
:104BF80014460133F2E7E06810B96FF01200F1E7EC
:104C080036F03DFC0028F8D000202C60EAE76FF071
:104C18000C00E7E78805002038D6030070B588B097
:104C280005460C46C0B269461646FFF7CFFF002876
:104C38001BDB0098C8B1436822680293836801951A
:104C4800CDE903360023CDE906230593C5682CF08A
:104C580041F96DB12846084901AA33F003FA0798CB
:104C680008B9059B236008B070BD6FF01500FAE71E
:104C78006FF01200F7E700BFDF0E03002DE9F041E7
:104C88000F4B05461C680E461746ACB14FF0FF3275
:104C98004FF0FF330B4812F0D5F863683246D3F86B
:104CA800088029463B462046C0470446054812F07E
:104CB80043F92046BDE8F0816FF00104F9E700BF31
:104CC80018920020B412002000230360044B5A6895
:104CD80012B9C3E90000704710605860704700BF00
:104CE8001C920020014B1860704700BF18920020EA
:104CF800002330B585B00546CDE9023301904FF069
:104D0800FF334FF0FF320B4812F09CF80A4B1C6837
:104D18004CB9284600F08EF80446064812F00CF903
:104D2800204605B030BD636820461B6801A9984736
:104D38002468EDE7B41200201C9200201FB5CDE9CD
:104D4800010103924FF0FF334FF0FF32094812F090
:104D580079F8094B1C682CB9064812F0EDF8204682
:104D680004B010BD636820461B6801A998472468F1
:104D7800F1E700BFB41200201C9200200022024B71
:104D8800C3E90022704700BF1C9200200022024B9A
:104D9800C3E90022FFF7F2BF249200202DE9F74370
:104DA80007460C4609B100230B6000261E4DDFF8AC
:104DB80080904D450FD31D4B1D6885B355F8148C55
:104DC8003846414601AA143D2CF0AEF810B3D6B9C6
:104DD80014BB2E461EE0D5F800803846414601AA8D
:104DE8002CF0A2F850B116B954B92E4606E00022AC
:104DF800404631682CF098F80028F5D11435D8E7EA
:104E0800019B2360F1E70022404631682CF08CF8C2
:104E18000028DDD16D69D0E7019B2360D9E73046D2
:104E280003B0BDE8F08300BFD4CD03002492002076
:104E38004CCE0300F8B506460025174C174FBC4268
:104E480008D3174B1C682CB3143CB6B9E368E3B914
:104E58006469F8E72EB9E3685BB928460546143457
:104E6800EDE70022314620682CF05EF80028F2D1E8
:104E7800F3E79847002DF0D1F0E70022314620688B
:104E88002CF052F80028E1D1E2E79847002D08BF3E
:104E98000546DDE72846F8BDD4CD03004CCE030017
:104EA8002492002038B50C4D4FF0FF334FF0FF32FD
:104EB8000A4811F0C7FF2B783BB9FFF767FF00F0EE
:104EC8006DF8044610B901232B700024034812F032
:104ED80033F8204638BD00BF7EB20020B41200204F
:104EE8002DE9F04780468946048FDFF8ACA00134ED
:104EF80098B0A4B200F10806651EADB2B5F5004F32
:104F080047D04A23294605AA30462BF002FE04F56D
:104F18007F543F34A4B207462146012330460DF1A1
:104F28000B022BF0F6FD002F014603DC002803DC02
:104F38002C46E1E7002816DCB8F83830AB4209D136
:104F480042466B1E22F8383F4FF400410223304698
:104F5800FFF736FA294630462BF077FD21463046D2
:104F68002BF073FDE4E707F160030DEB0307002363
:104F7800524607F84C3C05A8CDF8009003AB0396C1
:104F8800ADF810402CF006F80028D1D018B0BDE8D4
:104F9800F0870020FAE700BF0B1003007FB501235C
:104FA800694606200193FFF711FE0446002834D114
:104FB800062002AA01A9FFF731FE10F1130F0446DB
:104FC8002BD038B10C3405D0404080F311884FF015
:104FD800040002DF0399B1F5803F23D2002318466D
:104FE800009A9468084484421AD30133082BF9D1F3
:104FF8000E4DA982EB8253682846AB60D368EB63F9
:105008002CF099F8044640B9094E28466E60FFF71F
:105018005BFE28466E60FFF765FE204604B070BD53
:105028009BB2E5E76FF02004F7E700BF2C92002061
:105038008C0500202DE9F84305464FF02003EFF3D7
:10504800118683F31288BFF36F8F4FF00C090D4B55
:105058000D4F1C68DFF834802CB986F31188BFF334
:105068006F8FBDE8F883D4E90123002D18BF1346DC
:105078002BB198F8142009FB02F2B85C9847246811
:10508800EAE700BF8492002078920020B8A20020AE
:10509800012270B5164B1C7D04F01F039A40D043C3
:1050A800144B610903EB8103D3E8EF1F01EA000504
:1050B800C3E8E65F002EF7D10A4213D00E4B0F4D1E
:1050C8008BB10C236343EA185178E85C2BF015FA8E
:1050D8000020FFF7AFFF0C235C4300232A192B5154
:1050E800C2E9013370BD83F31188BFF36F8FEFE717
:1050F800B8A200208C9200200305030078920020BB
:105108002DE9F041324B07461D7D4FF02003EFF3A8
:10511800118883F31288BFF36F8F0C246C432D4BD7
:105128002D4E195D1A19002947D007CA06EB040C41
:105138008CE8070000221A5588F31188BFF36F8F97
:105148000C236B43F05CF218A8B37B1C10D04FF40F
:1051580000400021D2F808C0204C0023ECFB00419D
:105168001F4A2046FAF7F4FF0121381A36F0AEFD3F
:1051780012F01EFB0120FFF75DFF1A4B6A0903EBD3
:105188008203012205F01F018A40D3E8EF0F104384
:10519800C3E8E10F0029F8D1134B3BB10C2303FB03
:1051A80005F033185978305CFEF708FFFFF770FFF9
:1051B80012F012FB0120BDE8F0810146284600F0FC
:1051C80015F80028B8D007C8344484E80700B3E7C6
:1051D800B8A200206C920020789200203F420F0075
:1051E80040420F008C920020C53F00002DE9F04F8F
:1051F80085B00E4603A900F043F84FF40047044673
:105208004FF0000B1B4B039DD3F800A0431E1BB2AD
:1052180003EB4303DFF8648005EB830524B9A1465B
:10522800484605B0BDE8F08FC44659466868002373
:10523800E0FB07C1104A6046FAF78AFFC4465946A0
:105248000190A8680023E0FB07C10B4A6046FAF703
:105258007FFFBAF1FF3FA94601D0824505D9731CEB
:10526800DED0019B1844B042DAD9013CA4B20C3D0F
:10527800D4E700BFA005002040420F003F420F00C6
:1052880008B9024B0B600020704700BFACD6030082
:10529800002370B5136086B005930379054614465C
:1052A800032B03D8DFE803F0051A315C012006B0B0
:1052B80070BD2D4B09BA0491196800230422CDE969
:1052C800013300924E69006805AB04A9B047002875
:1052D800ECD1059B00201BBA2360E8E70B0C8DF886
:1052E80011304BBA8268ADF812301F4B090E1B689B
:1052F8000192042261F07F0100921E6A8DF810105D
:1053080005AB04A90068B047E1E70B0C8DF8113034
:105318004BBAADF812300B0E63F07F038DF81030E6
:10532800114BB1F5405F1B6800681E6AAB680193BA
:105338000DD202230422009304A905ABB047BDF89F
:1053480014305BBA2380003818BF0120AFE704226D
:1053580005AB009204A9B047059B1BBA2360F2E78E
:1053680022462BF009FFEEE7B804002030B5037998
:10537800044685B0032B45D8DFE803F00215254025
:10538800214B12BA03921A680023009395690822E8
:1053980009BA029120680DEB0201A847003818BF2E
:1053A800012005B030BD12BA174B0392A2681B68E2
:1053B80001920422009209BA20685D6A029103AB47
:1053C80002A9A847EAE70BBA02930F4BB1F5405F71
:1053D8001B6820685D6AA36809D252BA0193022348
:1053E800ADF80C200422009303AB02A9E9E712BA36
:1053F800039204220193009203ABF6E720462BF0B8
:10540800D9FECBE70120CCE7B8040020F0B50C4664
:1054180001790546022987B00ED8194824BAE1B1A6
:105428000168A8680594CDE9003013464C6A042247
:10543800286805A9A0471BE003291ED1012023F0F5
:1054480003031E19171BB44212D0214628463A5DA1
:105458002BF0B0FE60B90434F5E70068CDE901111E
:10546800009305941346C4690422286805A9A04737
:10547800003818BF012007B0F0BD0120FBE700BFCE
:10548800B80400202DE9F84F06460D4617464FF0A0
:10549800000BDFF89080DFF89090DFF890A0BB4514
:1054A80001D3002016E055F82B1005EB8B0C414575
:1054B800DCF804004FEA8B0211D0494520D0184B84
:1054C800994226D1DCE90232014630462BF08DFEA6
:1054D80010B10120BDE8F88F0BF1040BDFE702F1F2
:1054E80008042B590C3201469B0030462A440BF124
:1054F800030BFFF78BFF0028EBD12C59A344CEE711
:105508000022DAF800301146DB6898470BF1020BED
:10551800C5E702463046FFF729FF0028F6D0D8E74E
:10552800010000800200008003000080B804002011
:1055380070B50D46044608B9012070BD0029FBD09E
:1055480000F110060FCD0FC60FCD0FC6184B95E80A
:10555800030086E803001B6822469B681549A0697A
:1055680098470128E8D001234FF02E72C4E90F3282
:10557800114A0020A2640322C4E913206266C4F819
:1055880084204FF4E8524FF4E055626704220B4937
:10559800E365C4E91551A4F86C0084F86E302367FC
:1055A800A167E267A4F88C0084F88E002360C4E742
:1055B800B80400201D12030018D70300A4800100BE
:1055C8002DE9F3410368044633F0040204D10027AF
:1055D800384602B0BDE8F0814768012F21D1022B7F
:1055E8001DD10025A846184E85632B46356805F55C
:1055F800C03510359D421ED17268019B1A4207D0F2
:10560800B168A36B20460B43A36329462BF00EFE1B
:1056180008F10108B8F1090F06F10C06E5D10023DD
:105628006360A06B0028D2D0E3690BB1216A984768
:105638000023A363CBE72946204601AA2BF0EEFD01
:105648000028D9D0C4E700BFACD60300F0B50222C9
:1056580040F60801D5B0044615262BF0E7FD3A4F71
:1056680000223B681146DB68052098476A4640F6E9
:10567800040120462BF0D2FD0546002862D1013EE8
:1056880060D0009B9B07EBD5032240F6080120461B
:105698002BF0CCFD082320462C4901AACDE9015561
:1056A8002BF0DEFD2A4B06AE1F4603F1280C3246CE
:1056B80018685968083303C263451646F7D128238A
:1056C80006AA204623492BF0CBFD234B10AA03F151
:1056D800300C164618685968083303C663453246C5
:1056E800F7D118681D493423306010AA20462BF0E2
:1056F800B7FDDC221A491DA836F0F1FCDC23194954
:105708001DAA20462BF0ACFD174AD7F8380151687E
:1057180003AB03C39068154918600C2320460DEBB2
:1057280003022BF09DFD022240F6080120462BF0D3
:105738007DFD002240F6080120462BF077FD284623
:1057480055B0F0BD0125FAE7B8040020AC100400FC
:10575800C4CE0300A0C80400ECCE0300D0C80400E7
:1057680020CF030010C90400FCCF03008C100400F4
:10577800F7B5604D04462B6800211B6800699847FF
:1057880000222B681146DB68022098472B6801210C
:105798005B686069984700222B681146DB68022025
:1057A80098472B6801211B68206998471526524F96
:1057B80000222B681146DB680A20984739466A465A
:1057C80020462BF02BFD0146D0B9013E18D0009B96
:1057D8001B07EDD56A4620462BF020FD80B9009BBB
:1057E8006A4604212046A3602BF018FD40B9009BAF
:1057F80010212046E36001AA2BF010FD012802D1F8
:10580800012003B0F0BD019B002B55D0082B4ED1D1
:105818005522302120462BF009FDAA2230212046AE
:105828002BF004FD5522342120462BF0FFFCAA2240
:10583800342120462BF0FAFC44F668512F4A2046C2
:105848002BF0F4FC44F670512D4A20462BF0EEFC68
:105858004FF4803242F2AC4120462BF0E7FC40F294
:10586800FF5242F2B44120462BF0E0FC42F22041C4
:10587800244A20462BF0DAFC40F2154242F2244139
:1058880020462BF0D3FCCC22302120462BF0CEFC36
:105898003322302120462BF0C9FCCC22342120466B
:1058A8002BF0C4FC3322342120462BF0BFFC2046C9
:1058B800FFF7CCFE0128A3D0D4E90C1204F1240090
:1058C800FFF7E0FD00289BD101260F4DE968002372
:1058D80001F5C03120462A6901F588712BF0AEFC2C
:1058E80000288DD10136092E05F10C05EED10223D1
:1058F800236086E7B8040020148001000000B11D71
:10590800B849027015041504ACD603000449431EB7
:105918000F3013F8012F8A5C83421A70F9D170474F
:105928003D5A0400F0B50746264E8DB001AD0C4631
:105938000FCE0FC50FCE0FC596E8070085E8070004
:105948003846002F39D0002C39D0381F024621465E
:1059580010344B780D781B0443EA0563CD78043185
:105968002B4311F8025C8C4243EA052342F8043FBA
:10597800EFD10421144C8A07036916D1C3F30742F7
:10598800A55C1A0EA25C42EA0562C3F30725655DB1
:10599800DBB2E35C42EA054242EA032221F0030358
:1059A80030336B4453F82C3C534050F8042F0131EA
:1059B80053402C290361DED101200DB0F0BD2046F3
:1059C800FBE700BF7CCE03003D5A04002DE9F04FF1
:1059D800002703689DB003934368DFF8B0A10493E0
:1059E8008368DDE903460593C36806930369DDE927
:1059F80005BE0793436908938369DDE9072C09937A
:105A0800C36998460A93099B0193CD590CAB2DBAEB
:105A18005AF8049BDD514FEAF223A94483EAB213F2
:105A2800019D83EA72634B4425EA020502EA0C09E8
:105A380085EA09052B44434486EA0B054FEA743886
:105A480088EAB408254006EA0B0985EA090588EAC8
:105A5800B458A844043703EB0E05402F4344DE46F0
:105A6800DDF8048000937FD14FF0100A464B0B936A
:105A780051460AF1010A1CAB0AF00F0703EB87072E
:105A880057F8403C01F00F094FEAB34801F10E07FF
:105A98000931029388EAF31801F00F011CAB03EBFC
:105AA800810103EB890907F00F0751F8401C03EB4C
:105AB800870759F8403C57F8407C1944029B4FEA45
:105AC800F74E88EAD3088EEA774E8EEA972E41443D
